:100000000C947A040C9497040C9497040C94970421
:100010000C9497040C9497040C9497040C949704F4
:100020000C9497040C9497040C9497040C949704E4
:100030000C9497040C9497040C9497040C949704D4
:100040000C9497040C9497040C9497040C949704C4
:100050000C9497040C9497040C9497040C949704B4
:100060000C9497040C94970400407A10F35A00A063
:10007000724E18090010A5D4E80000E87648170071
:1000800000E40B54020000CA9A3B000000E1F505B1
:10009000000080969800000040420F000000A086FB
:1000A00001000000102700000000E803000000002D
:1000B0006400000000000A000000000001000000D1
:1000C00000002C76D888DC674F0823DFC1DFAE59EB
:1000D000E1B1B796E5E3E453C63AE651997696E87E
:1000E000E6C28426EB898C9B62ED407C6FFCEFBC02
:1000F0009C9F40F2BAA56FA5F490055A2AF75C932D
:100100006B6CF9676DC11BFCE0E40D47FEF520E662
:10011000B500D0ED902E0300943577050080841E45
:10012000080000204E0A000000C80C333333330FA0
:10013000986E12831141EF8D2114893BE65516CF3D
:10014000FEE6DB18D1844B381BF77C1D901DA4BB49
:10015000E424203284725E228100C9F124ECA1E5FE
:100160003D2702046901207E160000000005000101
:100170000000020D0602F4040005040601F4070065
:100180000A0C0A00F5160009100A01F32800100DE8
:100190001001F442000B0D0C01F4540002040401A0
:1001A000F4550004110601F45E0004110601F46721
:1001B0000005050701F46B0006080B03F971000246
:1001C00004050200720004010601FC73000201052F
:1001D00001007400050D0500F47D00080D0A01F40E
:1001E0008A00040D0A03F49100090D0A01F4A0002D
:1001F000080D0A01F4AD00070D0A02F4B900090D5B
:100200000A01F4C800090D0A01F4D700080D0A001C
:10021000F4E400090D0A01F4F300080D0A01F400EA
:1002200001020A0501F70301030C0501F8080109A1
:10023000090B01F8130109040B01FB180109090B53
:1002400001F82301090D0A01F4320111101201F421
:1002500054010C0D0C00F468010B0D0C01F47A0133
:100260000B0D0D01F48C010B0D0D01F49E01090D18
:100270000B01F4AD01080D0B01F4BA010C0D0E01D8
:10028000F4CE010B0D0D01F4E001020D0502F4E4C2
:1002900001070D0A01F4F0010B0D0C01F402020834
:1002A0000D0A01F40F020D0D0F01F425020B0D0DC7
:1002B00001F437020D0D0E01F44D020A0D0C01F48C
:1002C0005E020D0E0E01F475020C0D0D01F4890293
:1002D0000A0D0C01F49A02090D0B01F4A9020B0D91
:1002E0000D01F4BB020B0D0C00F4CD02110D110039
:1002F000F4E9020C0D0C00F4FD020C0D0C00F411DD
:10030000030A0D0B01F4220303110501F42903056F
:100310000D0500F4320303110500F4390307070843
:1003200001F440030A010A0003420304030500F438
:100330004403090A0A01F75003090D0A01F45F0397
:10034000080A0901F76903080D0A01F47603080A8F
:100350000A01F78003040D0501F48703080E0A0162
:10036000F79503080D0A01F4A203020D0401F4A697
:100370000304110400F4AF03090D0901F4BE0302E4
:100380000D0401F4C2030D0A0F01F7D303080A0A92
:1003900001F7DD03080A0A01F7E703090D0A01F76F
:1003A000F603080D0A01F70304050A0601F70A041B
:1003B000080A0901F71404040C0501F51A04080AD7
:1003C0000A01F72404090A0900F730040D0A0D0098
:1003D000F74104080A0900F74B04090E0900F75B0E
:1003E00004070A0901F7640404110601F46D04020C
:1003F000110402F4720404110601F47B04070309DA
:1004000001F9FFFFF8C0DEF72009864191FF1304D0
:10041000C320C8FF89826190101F14DA3D1E8340FB
:10042000781708F47A3533F040203810EC20C620D5
:10043000C640C6406C803900013C02770263046309
:100440000477083C0E0660CC1981E0180F0336C211
:10045000D8730631E3C4FE13266CCCCCC4662310DB
:100460008C4663333332664C80257EA50030C33F13
:1004700030C30CD6F0C00844211084421108003C5F
:100480006642C3C3C3C3C3C3C342663C113F3333D5
:100490003333303E31B07830181C1C1C181810084B
:1004A00007F83C66C3C303061C0703C3C3663C0CC2
:1004B000187162C9A346FE183060C07F201008087A
:1004C00007F38C030180F06C63E01E3198780C0612
:1004D000F38D83C1E0D06C63E0FF030206040C08D7
:1004E0001818181030303E31B0783C1B18F8C6C1CF
:1004F000E0F06C63E03C66C2C3C3C3673B0303C266
:10050000663CC00030C0000064A00081C78E0C07AC
:1005100080700E0180FF80001FF000700E01C01877
:100520003871C080003E31B0783018183818180C77
:100530000000018003F0060E06018600661DBB3137
:10054000CF18C79863CC31E611B399CCF786000178
:10055000800070400FE00600F00F009019819810A5
:10056000830C3FC204606606C030FF183303606C22
:100570000D833FC606C0780F01E06FF81F86198112
:10058000A03C0180300600C0680D831861F0FF18A0
:100590003303603C0780F01E03C0780F0360CFF088
:1005A000FFE030180C0603FD80C06030180FF8FF24
:1005B000C0C0C0C0C0FEC0C0C0C0C0C00F830E60FD
:1005C0006603C00C00C1FC03C0360360730F0F103C
:1005D000C0780F01E03C0780FFFE03C0780F01E008
:1005E0003C06FFFFFFC0060C183060C183078F1E5A
:1005F0002780C0D8330C630CC1B83F0730C31863E1
:1006000006606C0CC0C0C0C0C0C0C0C0C0C0C0C00C
:10061000FFE03F01FC1FE0FD05EC6F637913CD9E09
:100620006CF1478E3C7180E07C0FC1E83D8798F10A
:100630001E33C3786F07E07C0E0F8183180CC06CEB
:1006400001E00F007803C01B01980C60C0F800FFA8
:10065000306C0F03C0F06FF300C0300C0300C0001B
:100660000F8183180CC06C01E00F007803C01B01E0
:10067000986C60C0FB0008FF8C0EC06C06C06C0C50
:10068000FF8C0EC06C06C06C06C0703F186C0F0368
:10069000C01E01F00E00F03C0D863F00FF860301F6
:1006A00080C06030180C06030180C0C0780F01E0E4
:1006B0003C0780F01E03C0780F01B061F0C06C0DE4
:1006C0008110630C610460CC1901603C070060C1BB
:1006D0008130E19870CC286626211330C8986C4C84
:1006E00014340A1A0707030380818060630C30C149
:1006F000980F00E00600F019019830C60E6060C047
:10070000360630C30C1981D80F0060060060060061
:10071000600600FFC060300C060301C060301806A0
:100720000300FFC0FB6DB6DB6DB6E084108410845F
:1007300010841080EDB6DB6DB6DBE03060A244D8EB
:10074000A180FFC0C6307E71B0C060F3DB0D86C7EC
:100750003DC0C060301BCE360F0783C1E0F07C6D1A
:10076000E03C66C3C0C0C0C0C3663C0303033B6734
:10077000C3C3C3C3C3C3673B3C66C3C3FFC0C0C3DB
:10078000663C366F66666666603B67C3C3C3C3C3B9
:10079000C3673B0303C67CC0C0C0DEE3C3C3C3C39F
:1007A000C3C3C3C3C3FFFFC0300333333333333357
:1007B000E0C06030184C466361F0EC6231986C30F8
:1007C000FFFFFFC0DEF71CF0C7863C31E18F0C78DD
:1007D00063C31E18C0DEE3C3C3C3C3C3C3C3C33CE8
:1007E00066C3C3C3C3C3C3663CDE71B0783C1E0F8F
:1007F0000783E36F30180C003B67C3C3C3C3C3C395
:10080000673B030303DF318C6318C6003EE3C0C0BF
:10081000E03C07C3E37E66F666666667C3C3C3C390
:10082000C3C3C3C3C77BC1A098CC4221B0D0281C8E
:100830000C00C61E3891C4CA66D316D0A6871C38D1
:10084000C0C6004362361C181C3C266243C1219876
:10085000CC4261B0D0381C0C0603010300FE0C3002
:10086000C1861820C1FC3666666ECE66666630FFAD
:10087000FFFFFFC0C666666737666666C0612438DC
:1008800004E010021C07123732292D29252B3900CC
:10089000010310E110031D07062E2C292D2E2E37E3
:1008A0003F0000021013800A298064022A0400001D
:1008B000007F2B040000009F0F0180961180FFB184
:1008C00003012C2DB203012C2DB306012C2D012C7C
:1008D0002DB40107C003A20284C101C5C2020A00EF
:1008E000C3028A2AC4028AEEC5010E20003601C85E
:1008F0003A01050011241FBECFEFD8E0DEBFCDBF07
:1009000011E0A0E0B1E0EAE4FDE102C005900D9243
:10091000A239B107D9F722E0A2E9B1E001C01D92E6
:10092000A534B207E1F70E9460060C94A30E0C9464
:1009300000000F931F9300E010E020E840EA60E021
:1009400080E00E945C081F910F9108952F923F92C2
:100950004F925F926F927F928F929F92AF92BF92CF
:10096000CF92DF92EF92FF920F931F93CF93DF937B
:100970002B013C01EA014801590117010E94990429
:100980000AE312E021E030E044E050E0C301B201AC
:100990000E94C60BEE24EA94FE2C02E022E631E02F
:1009A0004AE352E060E280E00E94620901E022E650
:1009B00031E0AE0160E280E50E9462090AE312E0E4
:1009C00021E030E044E050E0C501B4010E94C60BD4
:1009D000B601C8010E94EF0B01E022E631E042E0DF
:1009E00051E066E480E00E94620922E631E04AE3D9
:1009F00052E065E588E20E9462094AE050E06AE35D
:100A000072E0C1010E94FA0B22E631E04DE051E0B4
:100A100066E780E00E94620922E631E04AE352E0A4
:100A200066E78EE60E946209DF91CF911F910F91D8
:100A3000FF90EF90DF90CF90BF90AF909F908F90FE
:100A40007F906F905F904F903F902F900895359BCF
:100A500008C0349B08C0339B08C0329B08C080E0AC
:100A6000089581E0089582E0089583E0089584E088
:100A70000895811136C08DE0EFE2F1E0AAE9B1E01E
:100A800001900D928A95E1F78DE0ECE3F1E0AAEA9E
:100A9000B1E001900D928A95E1F785E0E9E4F1E09B
:100AA000AAEBB1E001900D928A95E1F781E1EEE4C5
:100AB000F1E0AAECB1E001900D928A95E1F78AE0AD
:100AC000EFE5F1E0AAEDB1E001900D928A95E1F732
:100AD0008FE0E9E6F1E0AAEEB1E001900D928A958F
:100AE000E1F70895EF92FF920F93CF93C82F0E94E2
:100AF0009904EE24EA94FE2C01E022E631E048E776
:100B000051E06FE086E40E94620980E1C89FA00185
:100B1000112446565E4F22E631E06BE485E00E94E8
:100B20006209CF910F91FF90EF900895ECE7F0E00C
:100B30008081807380838081808380818E608083C8
:100B400087EE93E00197F1F700C00000EAE7F0E0DC
:100B5000808180648083808186FDFDCF2091780034
:100B60003091790040E050E064EB7BE281E190E07D
:100B70000E94A40BC90108958F929F92AF92BF92D9
:100B8000EF92FF920F931F93CF93DF930E949605EE
:100B9000845E9C40BC0180E090E00E94A90A20E0B5
:100BA00030E844ED54E40E94010A20E030E048ECD3
:100BB00052E40E94370B0E94730A4B015C01EB0167
:100BC0004AE050E06AE372E0C4010E94FA0B0E941E
:100BD0009904EAE3F2E001900020E9F7319785E219
:100BE00090E091838083EE24EA94FE2C02E022E6DA
:100BF00031E04AE352E06AE282E30E9462090FEFC9
:100C00001FEF29E144E362E382E30E945C08C13202
:100C1000D10544F400E018EF27E140E163E383E30A
:100C20000E945C0881E2881A910881E2881691048A
:100C300070F400EE1FEF27E140E163E383E30E94DD
:100C40005C0827E140E163E384E40E945C08C2346D
:100C5000D105A4F000EE17E027E140E163E383E370
:100C60000E945C0827E140E163E384E40E945C08A1
:100C700027E140E163E385E50E945C08DF91CF91C5
:100C80001F910F91FF90EF90BF90AF909F908F902A
:100C900008950E94BC050E9427058093440290910C
:100CA00000018913F8CF08951092C50083E3809363
:100CB000C40086E08093C20088E08093C10008955C
:100CC00080E895E20E94540687B1837487B988B1A1
:100CD0008C6388B90E94F8060E945D0780E00E943C
:100CE00092070E94990480EC80937C00EAE7F0E090
:100CF00085E88083808180648083808186FDFDCF4C
:100D00000F2EFFE7CF2EF1E0DF2EF02D0F2EFCE2AD
:100D1000EF2EFF24F394F02D0AE919E929E230E4DB
:100D2000A60166E676E68BE892E40E94A604C1E09E
:100D30000E94270580934402909101018913F8CF06
:100D400080E090E00E9439051092920180E090E0EE
:100D50000E9472052DC00E942705809344028230B4
:100D600009F118F48130D9F023C0833069F0843060
:100D7000F9F4809192018530D8F48F5F80939201CD
:100D800090E00E94720514C080919201882381F046
:100D900081508093920190E00E94720509C0C09337
:100DA000930106C080919201853011F40E9449069A
:100DB00080919301882379F210929301109292010D
:100DC0000F2EFFE7CF2EF1E0DF2EF02D0F2EFCE2ED
:100DD000EF2EFF24F394F02D0AE919E929E230E41B
:100DE000A60166E676E68BE892E40E94A604A0CF10
:100DF0008CE284B980E58CBD2A9A0895CF939C013A
:100E00002F5F3F4FFC01B491BB2309F454C060E055
:100E1000C9010196F90144915E982A984EBD0DB41E
:100E200007FEFDCF2A9A2E5F3F4FFC018491782F59
:100E300070788F77B1F0C22FA32F815090E0019688
:100E4000280F391FA901EC2FFA2F84915E9A2A9856
:100E50008EBD0DB407FEFDCF2A9A31964E175F075F
:100E6000A1F7772329F1A9014F5F5F4FF901249181
:100E70002F3F31F030E0121613066CF09A0118C0C3
:100E8000FFEF24E38CE0F15020408040E1F700C008
:100E900000009A010DC080E090E0EFE0F7E23197AA
:100EA000F1F700C00000059682179307B4F39A018A
:100EB0006F5FB613ADCFCF9108958AB1806C8AB9B8
:100EC0002A985F9A2FEF84E39CE021508040904065
:100ED000E1F700C000005F982FEF84E39CE0215011
:100EE00080409040E1F700C000005F9A2FEF84E35C
:100EF0009CE0215080409040E1F700C0000088EB6A
:100F000098E00E94FE068BEA98E00E94FE0680E8C8
:100F100098E00E94FE0680E88093950180EA809325
:100F2000940108955E982A9896E39EBD0DB407FE3D
:100F3000FDCF2A9A813039F0E8F0823009F448C0B8
:100F4000833079F108955E9A2A9888EC8EBD0DB4AD
:100F500007FEFDCF2A9A80E88093950180EA80936E
:100F600094018091980180939601809199018093DA
:100F7000970108955E9A2A9888EA8EBD0DB407FEFF
:100F8000FDCF2A9A80EA8093950180E880939401AE
:100F900080919901809396018091980180939701A7
:100FA00008955E9A2A9888E08EBD0DB407FEFDCFA5
:100FB0002A9A80E88093950180EA80939401809139
:100FC00098018093960180919901809397010895EB
:100FD0005E9A2A9888E68EBD0DB407FEFDCF2A9A48
:100FE00080EA8093950180E8809394018091990133
:100FF00080939601809198018093970108955E985F
:101000002A989AE29EBD0DB407FEFDCF2A9A5E9AF9
:101010002A981EBC0DB407FEFDCF2A9A9091960126
:10102000890F5E9A2A988EBD0DB407FEFDCF2A9ACD
:101030005E9A2A981EBC0DB407FEFDCF2A9A8091B5
:101040009601480F5E9A2A984EBD0DB407FEFDCF5B
:101050002A9A5E982A988BE28EBD0DB407FEFDCFCA
:101060002A9A5E9A2A981EBC0DB407FEFDCF2A9AD2
:1010700080919701680F5E9A2A986EBD0DB407FEA5
:10108000FDCF2A9A5E9A2A981EBC0DB407FEFDCFAA
:101090002A9A80919701280F5E9A2A982EBD0DB446
:1010A00007FEFDCF2A9A5E982A988CE28EBD0DB479
:1010B00007FEFDCF2A9A08950F931F93CF93DF93D6
:1010C000C42FD22F90919501891708F040C040910C
:1010D00094016417E0F52C2F30E0280F311D2150CA
:1010E0003109E92FF0E02E173F0714F0C92FC81B74
:1010F0002D2F30E0260F311D21503109E42FF0E073
:101100002E173F0714F0D42FD61B2FEF260F2D0FCD
:101110004FEF480F4C0F0E94FF075E9A2A98DD237D
:10112000A9F0912F20E00FC080E09EBD0DB407FE16
:10113000FDCF0EBD0DB407FEFDCF8F5FC813F5CFF9
:101140002F5FD21719F0C111EFCFFACF2A9ADF9192
:10115000CF911F910F9108953F924F925F926F929E
:101160007F928F929F92AF92BF92CF92DF92EF9237
:10117000FF920F931F93CF93DF9300D000D0CDB792
:10118000DEB7002309F488C0F901A080B180FA011C
:10119000C080D1809381911171C07EC01C8220E0FB
:1011A00030E0852C912CFB81F11109C0C60101961C
:1011B000F501EC0DFD1D74906C0160E86B838B8173
:1011C000872119F02F5F3F4F28C02115310529F1E4
:1011D000629E402D1124F7018681B401680F711DB4
:1011E00087FD7A95CB01632D689E600D1124558192
:1011F0007C81872F90E0850F911D57FD9A95821B6A
:10120000930B09811A81262DE42D689EE00D11248F
:101210008E2F0E945C0820E030E0FB81F695FB8376
:101220006C816F5F6C83F7018281681708F4BBCF14
:1012300021153105E9F0629E402D11248681850D2E
:10124000632D869D600D11245581FC818F2F90E0C8
:10125000850F911D57FD9A95821B930B09811A8169
:10126000262D342D689E300D1124832F0E945C089A
:101270005394F7018381581650F00EC0FA82E98228
:10128000602E7A01362E482E512C1B82712CF701CC
:101290008281811183CFECCF0F900F900F900F9030
:1012A000DF91CF911F910F91FF90EF90DF90CF9042
:1012B000BF90AF909F908F907F906F905F904F9076
:1012C0003F9008952F923F924F925F926F927F923C
:1012D0008F929F92AF92BF92CF92DF92EF92FF9246
:1012E0000F931F93CF93DF93CDB7DEB762970FB6FF
:1012F000F894DEBF0FBECDBF5A01102FFA8AE98ADB
:10130000482F880F550B588B4F87662E660F77082E
:1013100047E050E0B901CE0101960E94E60B45017D
:101320002F843888C12CD12C402E512C46C0F4017A
:1013300081914F018A3059F42F81249DC001259D50
:10134000900D1124680E791E2F84388833C02D81AA
:10135000821780F19E81981768F18D3059F190E0E5
:10136000821B9109BC01660F771F660F771F660FFE
:10137000771F681B790B8B819C81680F791F47E071
:1013800050E0CE0108960E94E60BE988FA88012F0A
:101390009E012F5F3F4FAE01485F5F4FB301C10118
:1013A0000E94AC082C85249DC001259D900D112420
:1013B000280E391EFFEFCF1ADF0AF5010190002039
:1013C000E9F73197EA19FB09CE16DF0608F4AFCF2B
:1013D00062960FB6F894DEBF0FBECDBFDF91CF91FE
:1013E0001F910F91FF90EF90DF90CF90BF90AF9043
:1013F0009F908F907F906F905F904F903F902F9035
:1014000008950E94150A0C94FD0A0E94F60A58F0ED
:101410000E94EF0A40F029F45F3F29F00C94E60A9D
:1014200051110C94310B0C94EC0A0E940E0B68F3D2
:101430009923B1F3552391F3951B550BBB27AA278D
:1014400062177307840738F09F5F5F4F220F331FC7
:10145000441FAA1FA9F335D00E2E3AF0E0E832D08F
:1014600091505040E695001CCAF72BD0FE2F29D092
:10147000660F771F881FBB1F261737074807AB0764
:10148000B0E809F0BB0B802DBF01FF2793585F4FD9
:101490003AF09E3F510578F00C94E60A0C94310B1B
:1014A0005F3FE4F3983ED4F3869577956795B795BB
:1014B000F7959F5FC9F7880F911D9695879597F9C6
:1014C0000895E1E0660F771F881FBB1F621773073F
:1014D0008407BA0720F0621B730B840BBA0BEE1F54
:1014E00088F7E09508950E947A0A6894B1110C94E7
:1014F000310B08950E94160B88F09F5798F0B92F72
:101500009927B751B0F0E1F0660F771F881F991F38
:101510001AF0BA95C9F714C0B13091F00E94300B9F
:10152000B1E008950C94300B672F782F8827B85FAF
:1015300039F0B93FCCF3869577956795B395D9F790
:101540003EF490958095709561957F4F8F4F9F4F9A
:101550000895E89409C097FB3EF4909580957095A6
:1015600061957F4F8F4F9F4F9923A9F0F92F96E9EF
:10157000BB279395F695879577956795B795F11164
:10158000F8CFFAF4BB0F11F460FF1BC06F5F7F4F01
:101590008F4F9F4F16C0882311F096E911C0772313
:1015A00021F09EE8872F762F05C0662371F096E81C
:1015B000862F70E060E02AF09A95660F771F881FEB
:1015C000DAF7880F9695879597F9089597F99F67A9
:1015D00080E870E060E008959FEF80EC08950024BB
:1015E0000A941616170618060906089500240A9488
:1015F00012161306140605060895092E0394000C0E
:1016000011F4882352F0BB0F40F4BF2B11F460FF9C
:1016100004C06F5F7F4F8F4F9F4F089557FD9058C5
:10162000440F551F59F05F3F71F04795880F97FBA6
:10163000991F61F09F3F79F0879508951216130660
:101640001406551FF2CF4695F1DF08C0161617068F
:101650001806991FF1CF86957105610508940895C4
:10166000E894BB2766277727CB0197F908950E9456
:101670004A0B0C94FD0A0E94EF0A38F00E94F60A09
:1016800020F0952311F00C94E60A0C94EC0A112436
:101690000C94310B0E940E0B70F3959FC1F3950FC4
:1016A00050E0551F629FF001729FBB27F00DB11DE6
:1016B000639FAA27F00DB11DAA1F649F6627B00D76
:1016C000A11D661F829F2227B00DA11D621F739F5F
:1016D000B00DA11D621F839FA00D611D221F749F6D
:1016E0003327A00D611D231F849F600D211D822FB4
:1016F000762F6A2F11249F5750409AF0F1F08823DB
:101700004AF0EE0FFF1FBB1F661F771F881F915007
:101710005040A9F79E3F510580F00C94E60A0C94C6
:10172000310B5F3FE4F3983ED4F386957795679548
:10173000B795F795E7959F5FC1F7FE2B880F911D31
:101740009695879597F90895A1E21A2EAA1BBB1BBF
:10175000FD010DC0AA1FBB1FEE1FFF1FA217B3077D
:10176000E407F50720F0A21BB30BE40BF50B661F93
:10177000771F881F991F1A9469F760957095809557
:1017800090959B01AC01BD01CF010895EF920F939D
:101790001F93CF93DF93E80147FD02C034E001C0FF
:1017A00034E1042E000C550B57FF03C051954195B1
:1017B0005109E32E022F242FAE010E942A0CCE01E4
:1017C000DF91CF911F910F91EF900895FB01DC0104
:1017D00002C005900D9241505040D8F70895FB018A
:1017E000DC010D900020E9F7119701900D92002087
:1017F000E1F708954532510520F4423010F00C9481
:10180000050CFB011082CB010895BB274A3031F44F
:10181000992322F4BDE2909581959F4F0C94110C71
:10182000BB27FB015527AA27880F991FAA1FA417BA
:1018300010F0A41B83955051B9F7A05DAA3308F0AE
:10184000A95DA193009779F7B111B1931192CB01E2
:101850000C945C0EA9E0B0E0E0E3FCE00C94720EA6
:101860006A01122FB02E2BE3201720F0FF24F394EF
:10187000F00E02C02CE3F22E0F2D27E0AE014F5FD9
:101880005F4F0E94840DBC014981842F8970813093
:1018900031F0E1FC06C0E0FE06C090E205C09DE22A
:1018A00003C09BE201C090E05E2D507143FF3CC03D
:1018B000911102C083E001C084E0811718F4212F48
:1018C000281B01C020E051110BC0F601822F30E22D
:1018D000882319F031938150FBCFC20ED11C20E038
:1018E000992329F0D6019C93F60131966F01C60128
:1018F0000396E2FE0AC03EE4D6013C9341E4119611
:101900004C93119712963C9306C03EE6F601308345
:1019100041E641833283FC01322F40E2332309F454
:1019200042C041933150FACF42FF44C0911102C0EE
:1019300083E001C084E0811718F4212F281B01C027
:1019400020E051110BC0F601822F30E2882319F0FC
:1019500031938150FBCFC20ED11C20E0992329F096
:10196000D6019C93F60131966F01C6010396E2FE03
:101970000BC039E4D6013C933EE411963C93119799
:1019800036E412963C9307C039E6F60130833EE612
:10199000318336E63283FC01322F40E2332319F0E3
:1019A00041933150FBCFFC01E20FF11D10828EEF0D
:1019B0009FEFA6C021E030E0911102C020E030E0AE
:1019C000161617061CF4FB01319602C0E1E0F0E0A8
:1019D0002E0F3F1FBB2021F0EB2DF0E0319602C00F
:1019E000E0E0F0E02E0F3F1FE12FF0E02E173F0761
:1019F0001CF4121B212F01C020E08E2D887159F498
:101A0000F601822F30E2882319F031938150FBCF09
:101A1000C20ED11C20E0992329F0D6019C93F60137
:101A200031966F0151110BC0F601822F90E388238C
:101A300019F091938150FBCFC20ED11C20E00F2DE5
:101A4000060F9A81342F307144FF03C0913309F49B
:101A50000150101624F4093018F008E001C001E02C
:101A6000AB0177FF02C040E050E0FB01E41BF50B47
:101A7000A1E0B0E0AC0FBD1FEA0FFB1F8EE2A82E65
:101A80004B01801A91080B2D10E011950195110959
:101A90004F3FBFEF5B0721F4D601AC9211966D0169
:101AA000641775072CF08416950614F4818101C023
:101AB00080E3415051093196D60111967D014017BE
:101AC000510724F0D6018C936701E2CF64177507A4
:101AD00039F4963320F4953319F4311101C081E3C0
:101AE000F6018083F701822F90E2882319F0919309
:101AF0008150FBCFF701E20FF11D108280E090E0F2
:101B00002996ECE00C948E0E283008F027E033275D
:101B1000DA01990F311D87FD91600096610571050D
:101B200039F432602E5F3D9330E32A95E1F7089552
:101B30009F3F30F080387105610509F03C5F3C5FE4
:101B40003D93913008F08068911DDF93CF931F93F0
:101B50000F93FF92EF92192F987F9695E92F969504
:101B60009695E90FFF27EE53FF4F99273327EE2471
:101B7000FF24A701E70105900894079428F4360F85
:101B8000E71EF81E491F511D660F771F881F991FFA
:101B90000694A1F70590079428F4E70EF81E491F54
:101BA000561FC11D770F881F991F661F0694A1F746
:101BB0000590079428F4F80E491F561FC71FD11D22
:101BC000880F991F661F771F0694A1F70590079449
:101BD00020F4490F561FC71FD81F990F661F771F84
:101BE000881F0694A9F784911095177041F0D69537
:101BF000C79557954795F794E7941A95C1F7E8E686
:101C0000F0E0689415901591359165919591059046
:101C10007FE27395E118F10A430B560BC90BD0090B
:101C2000C0F7E10CF11E431F561FC91FD01D7EF4E3
:101C3000703311F48A95E6CFE894015030F0080F24
:101C40000AF40027021708F4202F2395022F7A3375
:101C500028F079E37D932A95E9F710C07D932A95C2
:101C600089F6069497956795379517951794E11817
:101C7000F10A430B560BC90BD00998F023957E91BE
:101C800073957A3308F070E37C932013B8F77E9154
:101C900070617D9330F0839571E37D9370E32A95B5
:101CA000E1F71124EF90FF900F911F91CF91DF91F9
:101CB000992787FD90950895DC01FC01672F7191AC
:101CC0007723E1F7329704C07C916D937083629122
:101CD000AE17BF07C8F308952F923F924F925F92BD
:101CE0006F927F928F929F92AF92BF92CF92DF922C
:101CF000EF92FF920F931F93CF93DF93CDB7DEB791
:101D0000CA1BDB0B0FB6F894DEBF0FBECDBF099424
:101D10002A88398848885F846E847D848C849B847B
:101D2000AA84B984C884DF80EE80FD800C811B8189
:101D3000AA81B981CE0FD11D0FB6F894DEBF0FBEB8
:0A1D4000CDBFED010895F894FFCF28
:101D4A000102536F6C6964205347203A0053616D56
:101D5A00706C65207074203A004241434B00454E36
:101D6A0054455200505245562E004E455854005381
:101D7A00616D706C6520706F696E740053657420B4
:101D8A00536F6C6964205347005A65726F004D6542
:101D9A0061737572656D656E742054797065005350
:101DAA00657420556E697473004261747465727942
:101DBA00205374617475730053656C6563740067AE
:101DCA002F636D33000A0D00426174746572793AAB
:021DDA00000007
:00000001FF
